S016000047726F756E645F53746174696F6E2E737265635E
S11300000C942A000C943F000C943F000C943F0085
S11300100C943F000C943F000C943F000C943F0060
S11300200C943F000C943F000C943F000C943F0050
S11300300C943F000C943F000C943F000C943F0040
S11300400C943F000C943F000C943F000C943F0030
S11300500C943F0011241FBECFE5D8E0DEBFCDBF16
S113006010E0A0E6B0E0E2EDF8E002C005900D92E9
S1130070A63AB107D9F70E9439020C9467040C948C
S11300800000442319F04130C9F10895813091F002
S113009028F08230D9F0833029F108952AB381E021
S11300A090E002C0880F991F6A95E2F78095822339
S11300B08ABB089527B381E090E002C0880F991F9E
S11300C06A95E2F78095822387BB089524B381E083
S11300D090E002C0880F991F6A95E2F78095822309
S11300E084BB089521B381E090E002C0880F991F7A
S11300F06A95E2F78095822381BB0895813089F067
S113010028F08230C9F0833011F108952AB381E0D8
S113011090E002C0880F991F6A95E2F7822B8ABB90
S1130120089527B381E090E002C0880F991F6A9573
S1130130E2F7822B87BB089524B381E090E002C0EC
S1130140880F991F6A95E2F7822B84BB089521B327
S113015081E090E002C0880F991F6A95E2F7822B34
S113016081BB0895442319F04130C9F108958130C9
S113017091F028F08230D9F0833029F108952BB31F
S113018081E090E002C0880F991F6A95E2F780959C
S113019082238BBB089528B381E090E002C0880FCE
S11301A0991F6A95E2F78095822388BB089525B349
S11301B081E090E002C0880F991F6A95E2F780956C
S11301C0822385BB089522B381E090E002C0880FAA
S11301D0991F6A95E2F78095822382BB0895813046
S11301E089F028F08230C9F0833011F108952BB3DF
S11301F081E090E002C0880F991F6A95E2F7822B94
S11302008BBB089528B381E090E002C0880F991F4A
S11302106A95E2F7822B88BB089525B381E090E0CC
S113022002C0880F991F6A95E2F7822B85BB089557
S113023022B381E090E002C0880F991F6A95E2F72B
S1130240822B82BB0895CF93C82F40E061E081E008
S11302500E94B20040E062E081E00E94B20040E00F
S113026063E081E00E94B2008BB39C2F907F8F707B
S1130270892B8BBB41E063E081E00E94B2008FE9EF
S11302809FE00197F1F700C0000040E063E081E0E7
S11302900E94B20020E1C29FC00111249BB39F7051
S11302A0892B8BBB41E063E081E00E94B2008FE9BF
S11302B09FE00197F1F700C0000040E063E081E0B7
S11302C00E94B2008FE19EE40197F1F700C00000A4
S11302D0CF91089541E061E081E00E94410041E056
S11302E062E081E00E94410041E063E081E00E941D
S11302F0410041E064E080E00E94410041E065E0AB
S113030080E00E94410041E066E080E00E944100FC
S113031041E067E080E00E9441002FEF81EE94E02D
S1130320215080409040E1F700C0000082E00E942C
S1130330230183E30E94230182E30E94230188E2D4
S11303400E9423018CE00E94230181E00E9423018A
S113035086E00E9423010895CF93C82F41E061E015
S113036081E00E94B20040E062E081E00E94B200BD
S113037040E063E081E00E94B2008BB39C2F907F49
S11303808F70892B8BBB41E063E081E00E94B20057
S11303908FE99FE00197F1F700C0000040E063E0BF
S11303A081E00E94B20020E1C29FC00111249BB3EE
S11303B09F70892B8BBB41E063E081E00E94B20017
S11303C08FE99FE00197F1F700C0000040E063E08F
S11303D081E00E94B2008FE19EE40197F1F700C032
S11303E00000CF91089581E00E9423010895CF93E6
S11303F0DF93EC0109C08FE99FE00197F1F700C09A
S1130400000089910E94AC0188818111F4CFDF91B1
S1130410CF9108950F931F93CF93DF938C01C0E086
S1130420D0E01BC0101611064CF461E070E080911E
S11304306200909163000E94B80208C061E070E01D
S113044080916200909163000E94880383EC99E09C
S11304500197F1F700C0000021968091600090910F
S11304606100C817D907F0F2DF91CF911F910F9166
S11304700895CF93DF931F92CDB7DEB70E9458043F
S11304800E9494020E946A0184E690E00E94F701AF
S11304902FE38DE093E0215080409040E1F700C0CD
S11304A00000CE0101960E9460048130D1F70E94C1
S11304B0F3012FE38DE093E0215080409040E1F779
S11304C000C000008981893691F40E94F30183E71A
S11304D090E00E94F70180EC0E9423018FE790E0F6
S11304E00E94F70181E090E00E940A0213C0843662
S11304F089F40E94F3018BE890E00E94F70180ECFC
S11305000E94230189E990E00E94F7018FEF9FEF99
S11305100E940A022FE38DE093E021508040904036
S1130520E1F700C00000BDCF41E063E082E00E943B
S1130530410041E064E082E00E94410041E065E066
S113054082E00E94410041E066E082E00E944100B6
S1130550089520E030E008C0EFE9FFE03197F1F7BB
S113056000C000002F5F3F4F28173907A8F30895F4
S1130570EF92FF920F931F93CF93DF93EC017B01D4
S113058000E010E0BAC041E063E082E00E94B20003
S113059040E064E082E00E94B20040E065E082E076
S11305A00E94B20040E066E082E00E94B200CE0108
S11305B00E94A90241E063E082E00E94B20041E0AF
S11305C064E082E00E94B20040E065E082E00E94C4
S11305D0B20040E066E082E00E94B200CE010E94D8
S11305E0A90240E063E082E00E94B20041E064E0DE
S11305F082E00E94B20040E065E082E00E94B20026
S113060040E066E082E00E94B200CE010E94A902AE
S113061040E063E082E00E94B20041E064E082E0F6
S11306200E94B20041E065E082E00E94B20040E036
S113063066E082E00E94B200CE010E94A90240E07E
S113064063E082E00E94B20040E064E082E00E9445
S1130650B20041E065E082E00E94B20040E066E062
S113066082E00E94B200CE010E94A90240E063E051
S113067082E00E94B20040E064E082E00E94B200A6
S113068041E065E082E00E94B20041E066E082E081
S11306900E94B200CE010E94A90240E063E082E021
S11306A00E94B20040E064E082E00E94B20040E0B8
S11306B065E082E00E94B20041E066E082E00E94D0
S11306C0B200CE010E94A90241E063E082E00E94F0
S11306D0B20040E064E082E00E94B20040E065E0E5
S11306E082E00E94B20041E066E082E00E94B20033
S11306F0CE010E94A9020F5F1F4F0E151F0508F4BB
S113070042CFDF91CF911F910F91FF90EF90089509
S1130710EF92FF920F931F93CF93DF93EC017B0132
S113072000E010E0BAC041E063E082E00E94B20061
S113073040E064E082E00E94B20040E065E082E0D4
S11307400E94B20041E066E082E00E94B200CE0165
S11307500E94A90240E063E082E00E94B20040E00F
S113076064E082E00E94B20040E065E082E00E9422
S1130770B20041E066E082E00E94B200CE010E9435
S1130780A90240E063E082E00E94B20040E064E03D
S113079082E00E94B20041E065E082E00E94B20083
S11307A041E066E082E00E94B200CE010E94A9020C
S11307B040E063E082E00E94B20040E064E082E056
S11307C00E94B20041E065E082E00E94B20040E095
S11307D066E082E00E94B200CE010E94A90240E0DD
S11307E063E082E00E94B20041E064E082E00E94A3
S11307F0B20041E065E082E00E94B20040E066E0C1
S113080082E00E94B200CE010E94A90240E063E0AF
S113081082E00E94B20041E064E082E00E94B20003
S113082040E065E082E00E94B20040E066E082E0E1
S11308300E94B200CE010E94A90241E063E082E07E
S11308400E94B20041E064E082E00E94B20040E015
S113085065E082E00E94B20040E066E082E00E942F
S1130860B200CE010E94A90241E063E082E00E944E
S1130870B20040E064E082E00E94B20040E065E043
S113088082E00E94B20040E066E082E00E94B20092
S1130890CE010E94A9020F5F1F4F0E151F0508F419
S11308A042CFDF91CF911F910F91FF90EF90089568
S11308B088E18AB986E880BD87E689B910BC0895C5
S11308C05F9BFECF2CB1FC01208381E00895F89456
S10508D0FFCF54
S11308D200010100526563656976657220526561A3
S11308E2647900416C746974756465207570005292
S11308F26F746174696E6720435700416C74697444
S113090275646520646F776E00526F746174696EEA
S109091267204343570077
S9030000FC
