:100000000C9491000C94AE000C94AE000C94AE00D5
:100010000C94AE000C94AE000C94AE000C94C30C87
:100020000C94AE000C94AE000C94AE000C94AE0098
:100030000C94AE000C94AE000C94AE000C94AE0088
:100040000C94AE000C94AE000C94AE000C94AE0078
:100050000C94AE00084AD73B3BCE016E84BCBFFD7A
:10006000C12F3D6C74319ABD56833DDA3D00C77F88
:1000700011BED9E4BB4C3E916BAAAABE0000008021
:100080003F07634236B79BD8A71A39685618AEBAED
:10009000AB558C1D3CB7CC5763BD6DEDFD753EF681
:1000A000177231BF000000803F05A84CCDB2D44E7E
:1000B000B93836A9020C50B9918688083CA6AAAA7C
:1000C0002ABE000000803F08000000BE92244912B2
:1000D0003EABAAAA2ABECDCCCC4C3E00000080BECE
:1000E000ABAAAAAA3E00000000BF000000803F00AB
:1000F00000000000084178D3BB4387D1133D190E9F
:100100003CC3BD4282AD2B3E68EC8276BED98FE106
:10011000A93E4C80EFFFBE01C4FF7F3F00000000FE
:10012000000011241FBECFE5D8E0DEBFCDBF11E037
:10013000A0E6B0E0E6EEFDE202C005900D92A03B25
:10014000B107D9F721E0A0EBB1E001C01D92A43FB7
:10015000B207E1F70E94010D0C94F1160C94000017
:1001600087B1806487B987B18F7787B987B18F7D71
:1001700087B987B18E7F87B987B18D7F87B987B1FE
:100180008B7F87B987B1877F87B987B18F7E87B922
:1001900086B1806286B986B1816086B986B1826097
:1001A00086B986B1846086B986B1806886B90895BB
:1001B00086B1806486B9349BFECF84B195B1089531
:1001C000CF93DF93C82F60E087E70E946705811116
:1001D0001BC08C2F0E948E05811119C061E087E73A
:1001E0000E946705811116C081E00E949C05C82FFE
:1001F000D0E0DC2FCC2780E00E949C05C82B0E9419
:1002000088058C2F9D2F08C080E090E005C080E01D
:1002100090E002C080E090E0DF91CF91089560937C
:100220006000709361008093620090936300089572
:100230002091600030916100409162005091630014
:100240000E9482122EEA3CED42E45EE30E947D149D
:100250009B01AC0160E070E080E89FE30E949E118A
:1002600020E03AE24DE257E40E9410140895CF9343
:10027000DF9300D0CDB7DEB710C01A82198207C055
:10028000000029813A812F5F3F4F3A8329832981DA
:100290003A81203A3F40A0F30197009771F70F9001
:1002A0000F90DF91CF9108951F93CF93DF93182F75
:1002B00060E573EC80E090E00E94630584E690E0E6
:1002C0000E94370160E087E70E946705811155C0F1
:1002D00080ED0E948E05811152C061E087E70E9487
:1002E000670581114EC00E949C05C82F0E94880599
:1002F000C53509F048C08AEA0E94E0009093B20137
:100300008093B101892B09F440C08CEA0E94E0007F
:10031000C1EBD1E09B838A838EEA0E94E0009D833B
:100320008C8380EB0E94E0009F838E8382EB0E948F
:10033000E0009987888784EB0E94E0009B878A878A
:1003400086EB0E94E0009D878C8788EB0E94E0008E
:100350009F878E878AEB0E94E000998B888B8CEBBD
:100360000E94E0009B8B8A8B8EEB0E94E0009D8BAD
:100370008C8B1093B00180E009C08FEF07C08EEF27
:1003800005C08DEF03C08CEF01C08BEFDF91CF91E3
:100390001F91089560E087E70E946705811118C0EA
:1003A00084EF0E948E05811117C08EE20E948E0597
:1003B000811116C00E94880585E090E00E943701F7
:1003C00086EF0E94E000BC01990F880B990B0895FD
:1003D00060E070E0CB01089560E070E0CB0108952B
:1003E00060E070E0CB010895CF92DF92EF92FF9230
:1003F0000F931F930E94CA01611571058105910534
:1004000009F45AC0E1EBF1E0228533857B018C01D0
:10041000E21AF30A01091109A8019701A085B18523
:100420000E9483166B017C010B2EBFE0F594E794CC
:10043000D794C794BA95D1F7B02D62897389CB014F
:10044000770FAA0BBB0BBC01CD01052E5BE0660F3D
:10045000771F881F991F5A95D1F7502D2489358908
:100460008901330F220B330BA90198012C0D3D1D7F
:100470004E1D5F1D0E946416D701C601820F931F97
:10048000A41FB51F0896A11DB11DBC01CD01689424
:1004900013F895958795779567951694D1F70E94EF
:1004A0002C1320E030E040E251E40E948212562FEB
:1004B000472F382F292F04C050E040E030E020E0E3
:1004C000652F742F832F922F1F910F91FF90EF9024
:1004D000DF90CF900895CF92DF92EF92FF92CF936B
:1004E000DF938091B001823071F0833019F0813058
:1004F00039F403C0DAE1C4EF08C0D8E0C4E705C0AE
:10050000D5E0C4E302C0DEE0C4EB60E087E70E9410
:100510006705811146C084EF0E948E05811145C098
:100520008C2F0E948E05811144C00E9488058D2F5A
:1005300090E00E94370161E087E70E946705811122
:100540003CC081E00E949C05C82ED12CE12CF12CEE
:100550007601DD24CC2481E00E949C0590E0A0E09F
:10056000B0E0BA2FA92F982F8827C82AD92AEA2ABB
:10057000FB2A80E00E949C05C82A0E9488052091E1
:10058000B00188E090E0821B9109A701960104C0A8
:1005900055954795379527958A95D2F7CA01B901A0
:1005A0000FC060E070E0CB010BC060E070E0CB01F9
:1005B00007C060E070E0CB0103C060E070E0CB01F9
:1005C000DF91CF91FF90EF90DF90CF9008954F9201
:1005D0005F926F927F928F929F92AF92BF92CF92D3
:1005E000DF92EF92FF920F931F93CF93DF9300D090
:1005F00000D0CDB7DEB70E94CA016B017C010E941A
:100600006B022B013C01C114D104E104F10409F493
:100610005CC1672B682B692B09F45BC18091BB011E
:100620009091BC01A7019601281B390B4109510982
:10063000A091B901B091BA010E9483164B015C01EF
:10064000072E7FE0B594A794979487947A95D1F775
:10065000702D6091C3017091C401CB01770FAA0B7B
:10066000BB0BBC01CD01052E5BE0660F771F881F19
:10067000991F5A95D1F7502D2091C5013091C6018F
:100680008901330F220B330BA9019801280D391D65
:100690004A1D5B1D0E946416820E931EA41EB51E89
:1006A00020EA821A2FE0920AA108B108E091BF0166
:1006B000F091C001A5019401C501B4010E94321658
:1006C0009B01AC01012E1CE0559547953795279568
:1006D0001A95D1F7102D29833A834B835C83DF0170
:1006E0000E948E166B017C010B2EBBE0F594E79403
:1006F000D794C794BA95D1F7B02DA091B301B0911A
:10070000B401A50194010E948E16DC01CB01072ED5
:100710007BE0B595A795979587957A95D1F7702D3C
:100720008C0D9D1DAE1DBF1DE1EBF1E0C080D180A1
:10073000CC0CDD1CCC0CDD1C0D2C000CEE08FF08D5
:10074000C80ED91EEA1EFB1EE091B0010E2E04C099
:10075000CC0CDD1CEE1CFF1C0A94D2F7F2E0CF0E8D
:10076000D11CE11CF11CF594E794D794C794F5943F
:10077000E794D794C794A091B501B091B6010E94B7
:100780008E164B015C01072E7DE0B594A7949794DB
:1007900087947A95D1F7702DA091BD01B091BE01DB
:1007A00029813A814B815C810E948E16BB2797FD7F
:1007B000B095AB2F880D991DAA1DBB1D0296A11DDA
:1007C000B11DAC01BD017595679557954795759518
:1007D000679557954795A091B701B091B8019A01D7
:1007E000AB0130584F4F5F4F0E9483164B015C01A5
:1007F000072E7FE0B694A794979487947A95D1F7C3
:10080000702DA30192012C193D094E095F0980E565
:1008100093ECA0E0B0E0BC01CD0104C095958795B4
:1008200077956795EA95D2F70E94321699235CF086
:10083000660F771F881F991FA50194010E94421619
:1008400069017A010AC0A50194010E94421669015A
:100850007A01CC0CDD1CEE1CFF1C9927F7FC9A9545
:100860008F2D7E2D6D2D9B01AC010E9432169B01B8
:10087000AC01AEEDBBE00E9483164C01BB2497FC9B
:10088000B094AB2CA3E4B3EEA70196010E9491169D
:10089000BB2797FDB095AB2F880D991DAA1DBB1DD9
:1008A0008153914FAF4FBF4F689413F8B595A795FB
:1008B000979587951694D1F7BC01CD016C0D7D1DE0
:1008C0008E1D9F1D0E942C1307C060E070E0CB01BD
:1008D00003C060E070E0CB010F900F900F900F907D
:1008E000DF91CF911F910F91FF90EF90DF90CF900C
:1008F000BF90AF909F908F907F906F905F904F9040
:100900000895442319F04130C9F10895813091F0E0
:1009100028F08230D9F0833029F108952AB381E09C
:1009200090E002C0880F991F6A95E2F780958223B4
:100930008ABB089527B381E090E002C0880F991F19
:100940006A95E2F78095822387BB089524B381E0FE
:1009500090E002C0880F991F6A95E2F78095822384
:1009600084BB089521B381E090E002C0880F991FF5
:100970006A95E2F78095822381BB0895813089F0E2
:1009800028F08230C9F0833011F108952AB381E054
:1009900090E002C0880F991F6A95E2F7822B8ABB0C
:1009A000089527B381E090E002C0880F991F6A95EF
:1009B000E2F7822B87BB089524B381E090E002C068
:1009C000880F991F6A95E2F7822B84BB089521B3A3
:1009D00081E090E002C0880F991F6A95E2F7822BB0
:1009E00081BB0895442319F04130C9F10895813045
:1009F00091F028F08230D9F0833029F108952BB39B
:100A000081E090E002C0880F991F6A95E2F7809517
:100A100082238BBB089528B381E090E002C0880F49
:100A2000991F6A95E2F78095822388BB089525B3C4
:100A300081E090E002C0880F991F6A95E2F78095E7
:100A4000822385BB089522B381E090E002C0880F25
:100A5000991F6A95E2F78095822382BB08958130C1
:100A600089F028F08230C9F0833011F108952BB35A
:100A700081E090E002C0880F991F6A95E2F7822B0F
:100A80008BBB089528B381E090E002C0880F991FC6
:100A90006A95E2F7822B88BB089525B381E090E048
:100AA00002C0880F991F6A95E2F7822B85BB0895D3
:100AB00022B381E090E002C0880F991F6A95E2F7A7
:100AC000822B82BB089588E980B911B8089594EA11
:100AD00096BF06B607FEFDCF91B1987F983011F012
:100AE000903191F490E0880F991F862B83B984E8A8
:100AF00086BF06B607FEFDCF81B1887F883131F011
:100B0000803429F480E00895892F089580E00895C5
:100B100084E986BF06B604FCFDCF089583B984E856
:100B200086BF06B607FEFDCF81B1887F883211F0FF
:100B300081E0089580E0089520E4829FC00111249F
:100B4000846886BF06B607FEFDCF83B1089580E0B6
:100B50000E949C050895CF93C82F40E061E081E09A
:100B60000E94F20440E062E081E00E94F20440E072
:100B700063E081E00E94F2048BB39C2F907F8F7022
:100B8000892B8BBB41E063E081E00E94F2048FE996
:100B90009FE00197F1F700C0000040E063E081E0D2
:100BA0000E94F20420E1C29FC00111249BB39F70F8
:100BB000892B8BBB41E063E081E00E94F2048FE966
:100BC0009FE00197F1F700C0000040E063E081E0A2
:100BD0000E94F2048FE19EE40197F1F700C000004B
:100BE000CF91089541E061E081E00E94810441E0FD
:100BF00062E081E00E94810441E063E081E00E94C4
:100C0000810441E064E080E00E94810441E065E00D
:100C100080E00E94810441E066E080E00E9481045F
:100C200041E067E080E00E9481042FEF81EE94E0D4
:100C3000215080409040E1F700C0000082E00E9417
:100C4000AB0583E30E94AB0582E30E94AB0588E21B
:100C50000E94AB058CE00E94AB0581E00E94AB05D1
:100C600086E00E94AB050895CF93C82F41E061E074
:100C700081E00E94F20440E062E081E00E94F20420
:100C800040E063E081E00E94F2048BB39C2F907FF0
:100C90008F70892B8BBB41E063E081E00E94F204FE
:100CA0008FE99FE00197F1F700C0000040E063E0AA
:100CB00081E00E94F20420E1C29FC00111249BB395
:100CC0009F70892B8BBB41E063E081E00E94F204BE
:100CD0008FE99FE00197F1F700C0000040E063E07A
:100CE00081E00E94F2048FE19EE40197F1F700C0D9
:100CF0000000CF91089581E00E94AB050895CF9345
:100D0000DF93EC0109C08FE99FE00197F1F700C084
:100D1000000089910E94340688818111F4CFDF910F
:100D2000CF910895CF93DF93CDB7DEB72A970FB653
:100D3000F894DEBF0FBECDBF2AE030E0AE014F5FBA
:100D40005F4F0E94A516CE0101960E947F062A964B
:100D50000FB6F894DEBF0FBECDBFDF91CF910895DF
:100D60004F925F926F927F928F929F92AF92BF92BB
:100D7000CF92DF92EF92FF92CF93DF93CDB7DEB7A2
:100D800028970FB6F894DEBF0FBECDBF0E94300E7D
:100D90000E94F4122B013C010E94830E0E94F41267
:100DA0004B015C010E946E110E94F4126B017C01E8
:100DB0000E94F4010E94F41269837A838B839C83DE
:100DC0000E94E7020E9418010E94F4126D837E8344
:100DD0008F8398870E947B0688E690E00E947F06BA
:100DE000B201550C880B990B0E9492068BE690E09D
:100DF0000E947F06B401990C880B990B0E94920601
:100E000080EC0E94AB058FE690E00E947F06B60161
:100E1000DD0C880B990B0E94920682E790E00E94FD
:100E20007F0629813A81B901330F880B990B0E9403
:100E300092063FEF87EA91E6315080409040E1F71B
:100E400000C000000E947B0686E790E00E947F06BB
:100E50002D813E81B901330F880B990B0E949206B8
:100E600080E591E00E947F063FEF87EA91E63150EE
:100E700080409040E1F700C0000028960FB6F8943B
:100E8000DEBF0FBECDBFDF91CF91FF90EF90DF901F
:100E9000CF90BF90AF909F908F907F906F905F901A
:100EA0004F900895CF92DF92EF92FF926B017C01F9
:100EB0000E947B0620E030E0A901C701B6010E9434
:100EC00003141816B4F58EE990E00E947F0680ECBA
:100ED0000E94AB0587EA90E00E947F06C701B60139
:100EE0000E94F412072E000C880B990B0E949206A8
:100EF00080EB90E00E947F06609164007091650035
:100F000080E090E00E942A139B01AC01C701B6016A
:100F10000E94101420E030E044E353E40E94821267
:100F20000E94FB1280916600909167000E94B20FB0
:100F300042C020E030E0A901C701B6010E947D1245
:100F40008823CCF585EB90E00E947F0680EC0E9420
:100F5000AB0587EA90E00E947F06F7FAF094F7F875
:100F6000F094C701B6010E94F412072E000C880B02
:100F7000990B0E94920680EB90E00E947F066091A0
:100F800064007091650080E090E00E942A139B014C
:100F9000AC01C701B6010E94101420E030E044E328
:100FA00053E40E9482120E94FB128091660090918D
:100FB00067000E9482102FEF83ED90E32150804064
:100FC0009040E1F700C00000FF90EF90DF90CF90DD
:100FD0000895CF92DF92EF92FF926B017C010E9405
:100FE0007B0620E030E0A901C701B6010E9403148E
:100FF0001816B4F58FEB90E00E947F0680EC0E94FB
:10100000AB0587EC90E00E947F06C701B6010E9405
:10101000F412072E000C880B990B0E94920680EBAD
:1010200090E00E947F06609164007091650080E00E
:1010300090E00E942A139B01AC01C701B6010E94F7
:10104000101420E030E044E353E40E9482120E9436
:10105000FB1280916600909167000E94B20F42C01F
:1010600020E030E0A901C701B6010E947D1288236B
:10107000CCF58FEC90E00E947F0680EC0E94AB05DF
:1010800087EC90E00E947F06F7FAF094F7F8F0946E
:10109000C701B6010E94F412072E000C880B990BB1
:1010A0000E94920680EB90E00E947F0660916400AF
:1010B0007091650080E090E00E942A139B01AC01D2
:1010C000C701B6010E94101420E030E044E353E46D
:1010D0000E9482120E94FB1280916600909167002C
:1010E0000E9482102FEF83ED90E3215080409040CA
:1010F000E1F700C00000FF90EF90DF90CF900895DF
:10110000FB0120813181281739072CF491838083DA
:1011100081E090E0089580E090E00895FB01208157
:101120003181821793072CF49183808381E090E0D2
:10113000089580E090E00895F8946091D001709156
:10114000D1018091D2019091D301789408954F926A
:101150005F926F927F928F929F92AF92BF92CF9247
:10116000DF92EF92FF92CF93DF9300D000D0CDB704
:10117000DEB77C010E949C084B015C018091D40188
:101180009091D501A091D601B091D701A50194010C
:10119000281B390B4A0B5B0BCA01B9010E942A13A9
:1011A00020E030E04AE754E40E9482122B013C0127
:1011B0008092D4019092D501A092D601B092D7012D
:1011C0000E94300E0E94F412A701461B570BBA0171
:1011D000072E000C880B990B0E942C136B017C01CD
:1011E0009B01AC01C301B2010E9410142091E401E3
:1011F0003091E5014091E6015091E7010E949F1175
:101200004B015C016093E4017093E5018093E6017A
:101210009093E7012091E0013091E1014091E201DA
:101220005091E301C701B6010E949E11A3019201F2
:101230000E94821269837A838B839C83A701960123
:10124000C701B6010E949F112B013C012DEC3CEC23
:101250004CEC5DE3C501B4010E9410149B01AC018C
:10126000C301B2010E949F114B015C0120E030E0FC
:1012700040E05FE369817A818B819C810E94101438
:101280009B01AC01C501B4010E949F11C092E00115
:10129000D092E101E092E201F092E3010E94F412A7
:1012A000072E000C880B990B0E942C130E945207EA
:1012B0000F900F900F900F90DF91CF91FF90EF90D4
:1012C000DF90CF90BF90AF909F908F907F906F9066
:1012D0005F904F9008954F925F926F927F928F929E
:1012E0009F92AF92BF92CF92DF92EF92FF92CF93F5
:1012F000DF9300D000D0CDB7DEB77C010E949C0800
:101300004B015C018091D4019091D501A091D6014F
:10131000B091D701A5019401281B390B4A0B5B0B37
:10132000CA01B9010E942A1320E030E04AE754E4E0
:101330000E9482122B013C018092D4019092D5012F
:10134000A092D601B092D7010E94830E0E94F4129F
:10135000A701461B570BBA01072E000C880B990BEF
:101360000E942C136B017C019B01AC01C301B201F3
:101370000E9410142091DC013091DD014091DE01CA
:101380005091DF010E949F114B015C016093DC01D1
:101390007093DD018093DE019093DF012091D801ED
:1013A0003091D9014091DA015091DB01C701B601BA
:1013B0000E949E11A30192010E94821269837A8386
:1013C0008B839C8320E030E040EC5FE3C701B601F3
:1013D0000E9410142B013C012DEC3CEC4CEC5DE325
:1013E000C501B4010E9410149B01AC01C301B201FC
:1013F0000E949F114B015C012DEC3CEC4CEC5EE338
:1014000069817A818B819C810E9410149B01AC01BF
:10141000C501B4010E949F11C092D801D092D90198
:10142000E092DA01F092DB010E94F412072E000C28
:10143000880B990B0E942C130E94E9070F900F90C4
:101440000F900F90DF91CF91FF90EF90DF90CF90B2
:10145000BF90AF909F908F907F906F905F904F90D4
:1014600008954F925F926F927F928F929F92AF9268
:10147000BF92CF92DF92EF92FF92CF93DF9300D093
:1014800000D000D0CDB7DEB721E030E03E832D8321
:10149000412C512C32010E947B0688ED90E00E9485
:1014A0007F062D813E81B901330F880B990B0E9475
:1014B00092063FEF87EA91E6315080409040E1F795
:1014C00000C000000E949C084B015C01E7C00E9424
:1014D0009C08681979098A099B090E942A1320E04F
:1014E00030E44CE955E40E9482126B017C012D81AD
:1014F0003E812130310529F52BED3FE049EC50E4E8
:101500000E9410140E94CD1420E030E040E251E42B
:101510000E94101469837A838B839C832BED3FE0B8
:1015200049E451E4C701B6010E9410140E94CD1491
:1015300020E030E040EA51E40E9410146B017C018D
:1015400024C02BED3FE049EC50E40E9410140E94AF
:10155000CD1420E030E040E251EC0E941014698389
:101560007A838B839C832BED3FE049E451E4C701F0
:10157000B6010E9410140E94CD1420E030E040EA31
:1015800051EC0E9410146B017C0169817A818B817E
:101590009C810E94F412CB010E94A708C701B601EA
:1015A0000E94F412CB010E946B090E949C08DC018E
:1015B000CB0184199509A609B709883E9340A10576
:1015C000B10520F10E946E110E94F4127B010E946D
:1015D0009C082B013C0183E0E816F104BCF40E9456
:1015E0007B068FED90E00E947F0680EC0E94AB05A9
:1015F0008CEE90E00E947F069FEF27EA31E6915043
:1016000020403040E1F700C0000079C00E94E702AE
:101610000E9418010E94F4126B017C0167EC71E0DA
:10162000C6010E948008892BA1F08AEF90E00E94F9
:101630005E110E947B068EEF90E00E947F068FEF86
:1016400093ED20E3815090402040E1F700C000007E
:101650001AC067EC71E0C6010E948E08892B99F0D0
:101660008CE091E00E945E110E947B0680E191E097
:101670000E947F063FEF83ED90E331508040904021
:10168000E1F700C000000E94B0062FEF31EE84E0C9
:10169000215030408040E1F700C000000E949C08CB
:1016A000DC01CB0188199909AA09BB098838934143
:1016B000A105B10508F40BCF8D819E81019729F416
:1016C00022E030E03E832D8304C081E090E09E83E1
:1016D0008D832D813E812130310509F0DCCE0E94C1
:1016E0007B068EE191E00E947F063FEF87EA91E65C
:1016F000315080409040E1F700C00000CCCE2696EB
:101700000FB6F894DEBF0FBECDBFDF91CF91FF9033
:10171000EF90DF90CF90BF90AF909F908F907F9091
:101720006F905F904F900895CF92DF92EF92FF926B
:10173000CF93DF930E94300E0E94F4126B017C0164
:101740000E947B0680E391E00E947F06B601DD0CDB
:10175000880B990B0E94920680EB90E00E947F0616
:101760002FEF83ED90E3215080409040E1F700C0DF
:1017700000000E94830E0E94F4126B017C010E9403
:101780007B0688E391E00E947F06B601DD0C880BA2
:10179000990B0E94920680EB90E00E947F062FEF4B
:1017A00083ED90E3215080409040E1F700C00000BD
:1017B0000E94F4016B017C010E947B068FE391E0A3
:1017C0000E947F06C701B6010E94FB120E9492068A
:1017D00086E491E00E947F062FEF83ED90E3215095
:1017E00080409040E1F700C000000E94E7020E94A4
:1017F00018010E94F4126B017C010E947B0689E4AF
:1018000091E00E947F06B6010D2C000C880B990B0D
:101810000E9492068FE491E00E947F062FEF83EDF5
:1018200090E3215080409040E1F700C0000069EC57
:1018300071E0C6010E948008892BA1F08AEF90E038
:101840000E945E110E947B0682E591E00E947F0665
:101850002FEF83ED90E3215080409040E1F700C0EE
:1018600000001AC069EC71E0C6010E948E08892B45
:1018700099F08CE091E00E945E110E947B0682E567
:1018800091E00E947F062FEF83ED90E3215080408E
:101890009040E1F700C000000E946E110E94F41217
:1018A0006B017C01EB010E947B068CE591E00E94BC
:1018B0007F06B601DD0C880B990B0E94920683E629
:1018C00091E00E947F062FEF83ED90E3215080404E
:1018D0009040E1F700C00000239754F10E947B067E
:1018E00088E691E00E947F0680EC0E94AB0580E7CD
:1018F00091E00E947F062FEF87EA91E62150804019
:101900009040E1F700C000008091CB0181110DC033
:101910000E949C086093CC017093CD018093CE010E
:101920009093CF0181E08093CB010E94310A16C0D1
:101930000E947B068FED90E00E947F0680EC0E9463
:10194000AB058FE791E00E947F062FEF83ED90E3D8
:10195000215080409040E1F700C00000DF91CF911E
:10196000FF90EF90DF90CF9008958EB588608EBD88
:1019700089EF90E09BBD8ABD89B7806189BF8EB534
:1019800083608EBD08951F920F920FB60F9211249F
:101990008F939F93AF93BF938091D0019091D1018A
:1019A000A091D201B091D3010196A11DB11D8093E8
:1019B000D0019093D101A093D201B093D301BF91F4
:1019C000AF919F918F910F900FBE0F901F90189520
:1019D000CF93C82F0E947B068AE891E00E947F0681
:1019E0006C2F70E080E090E00E9492062FEF87EA73
:1019F00091E6215080409040E1F700C00000CF9177
:101A000008950E9452110E949D0F0E946B110E9426
:101A1000F20581E00E9454012FEF83ED90E3215005
:101A200080409040E1F700C000000E947B060E94C9
:101A3000E7020E940F0160EA76E881E090E00E94F0
:101A400063050E94570D882319F00E94E80CFFCF10
:101A50000E94D50E82E991E00E947F0680EC0E94F0
:101A6000AB0581EA91E00E947F062FEF83ED90E3C2
:101A7000215080409040E1F700C000000E94B50C6A
:101A800078940E949C086093D4017093D501809350
:101A9000D6019093D7010E94940B2FEF81EE94E032
:101AA000215080409040E1F700C00000F4CF60E09A
:101AB00088E60E94670581111EC08BE60E948E0594
:101AC00081111BC00E948E05811119C00E948805DA
:101AD00060E088E60E946705811113C08BE10E94D7
:101AE0008E05811110C00E948E0581110EC00E94CA
:101AF000880580E0089581E0089582E0089583E0FC
:101B0000089584E0089585E0089586E008957F9221
:101B10008F929F92AF92BF92CF92DF92EF92FF92FD
:101B20000F931F93CF93DF9300D000D000D0CDB799
:101B3000DEB76C017B018A0160E088E60E946705E0
:101B4000811175C08BE30E948E05811172C00E94C5
:101B5000880561E088E60E94670581116CC0A12CB0
:101B6000B12C0DC081E00E949C05E1E0F0E0EC0F9B
:101B7000FD1FEA0DFB1D80838FEFA81AB80AE5E070
:101B8000AE16B1047CF30E94A705782E0E9488054A
:101B90008980912C982C88248A81882A0F2EF8EE2F
:101BA000AF2EF1E0BF2EF02DF501608171818281B1
:101BB000938120E030E040E856E40E9410140E9437
:101BC000F412861A970AF60191828082CB80D12C7A
:101BD000DC2CCC248C81C82AF50164817581868136
:101BE000978120E030E040E856E40E9410140E9403
:101BF000F412C61AD70AF701D182C082ED80F12C07
:101C0000FE2CEE24E728F501608571858285938599
:101C100020E030E040E856E40E9410140E94F412E4
:101C2000E61AF70AF801F182E08280E005C081E05F
:101C300003C082E001C083E026960FB6F894DEBFB1
:101C40000FBECDBFDF91CF911F910F91FF90EF900D
:101C5000DF90CF90BF90AF909F908F907F9008952E
:101C6000CF92DF92EF92FF92CF93DF9300D000D01C
:101C700000D0CDB7DEB7AE014B5F5F4FBE016D5FE9
:101C80007F4FCE0101960E94870D69817A81072ED0
:101C9000000C880B990B0E942C1320E030E040E8E8
:101CA00058E30E9410146B017C016D817E81072E28
:101CB000000C880B990B0E942C1320E030E040E8C8
:101CC00058E30E9410149B01AC01C701B601905863
:101CD0000E941E1220E030E044E353E40E941014FE
:101CE0002BED3FE049E450E40E94821226960FB6A5
:101CF000F894DEBF0FBECDBFDF91CF91FF90EF9084
:101D0000DF90CF900895CF92DF92EF92FF92CF9322
:101D1000DF9300D000D000D0CDB7DEB7AE014B5F6F
:101D20005F4FBE016D5F7F4FCE0101960E94870D10
:101D30006B817C81072E000C880B990B0E942C1361
:101D400020E030E040E858E30E9410146B017C0171
:101D50006D817E81072E000C880B990B0E942C133D
:101D600020E030E040E858E30E9410149B01AC01F1
:101D7000C701B6010E941E1220E030E044E353E4A4
:101D80000E9410142BED3FE049E450E40E948212BF
:101D900026960FB6F894DEBF0FBECDBFDF91CF9170
:101DA000FF90EF90DF90CF9008954F925F926F92E7
:101DB0007F928F929F92AF92BF92CF92DF92EF92DB
:101DC000FF920F931F93CF93DF93CDB7DEB72C977E
:101DD0000FB6F894DEBF0FBECDBF00E010E0C12CFF
:101DE000D12C7601812C912C5401412C512C3201A3
:101DF00042C0AE01475F5F4FBE016B5F7F4FCE01B8
:101E000001960E94870D20E030E040E856E46981A9
:101E10007A818B819C810E9410140E94F412460EDC
:101E2000571E681E791E20E030E040E856E46D81C0
:101E30007E818F8198850E9410140E94F412860E74
:101E4000971EA81EB91E20E030E040E856E46985E0
:101E50007A858B859C850E9410140E94F412C60E10
:101E6000D71EE81EF91E8FE39CE90197F1F700C029
:101E700000000F5F1F4F043611050CF4BACFC301E9
:101E8000B2010E942C1320E030E048EC52E40E94A2
:101E9000821220E030E040E858E30E94101408EE7F
:101EA00011E0F8016083718382839383C501B401DB
:101EB0000E942C1320E030E048EC52E40E94821291
:101EC00020E030E040E858E30E941014F8016483F9
:101ED000758386839783C701B6010E942C1320E087
:101EE00030E048EC52E40E94821220E030E040E80A
:101EF00058E30E94101420E030E040E85FE30E94C5
:101F00009E11F80160877187828793872C960FB6A0
:101F1000F894DEBF0FBECDBFDF91CF911F910F911F
:101F2000FF90EF90DF90CF90BF90AF909F908F90F9
:101F30007F906F905F904F90089541E063E082E062
:101F40000E94810441E064E082E00E94810441E05B
:101F500065E082E00E94810441E066E082E00E9448
:101F600081040895EF92FF920F931F93CF93DF9315
:101F7000EC017B0100E010E0BAC041E063E082E0E8
:101F80000E94F20440E064E082E00E94F20440E03B
:101F900065E082E00E94F20440E066E082E00E9498
:101FA000F204CE010E94370141E063E082E00E942A
:101FB000F20441E064E082E00E94F20440E065E067
:101FC00082E00E94F20440E066E082E00E94F204B7
:101FD000CE010E94370140E063E082E00E94F204FB
:101FE00041E064E082E00E94F20440E065E082E0CB
:101FF0000E94F20440E066E082E00E94F204CE011A
:102000000E94370140E063E082E00E94F20441E078
:1020100064E082E00E94F20441E065E082E00E9418
:10202000F20440E066E082E00E94F204CE010E94E9
:10203000370140E063E082E00E94F20440E064E0A7
:1020400082E00E94F20441E065E082E00E94F20436
:1020500040E066E082E00E94F204CE010E94370177
:1020600040E063E082E00E94F20440E064E082E04D
:102070000E94F20441E065E082E00E94F20441E047
:1020800066E082E00E94F204CE010E94370140E047
:1020900063E082E00E94F20440E064E082E00E949B
:1020A000F20440E065E082E00E94F20441E066E074
:1020B00082E00E94F204CE010E94370141E063E019
:1020C00082E00E94F20440E064E082E00E94F204B8
:1020D00040E065E082E00E94F20441E066E082E0D8
:1020E0000E94F204CE010E9437010F5F1F4F0E15B0
:1020F0001F0508F442CFDF91CF911F910F91FF9000
:10210000EF900895EF92FF920F931F93CF93DF9379
:10211000EC017B0100E010E0BAC041E063E082E046
:102120000E94F20440E064E082E00E94F20440E099
:1021300065E082E00E94F20441E066E082E00E94F5
:10214000F204CE010E94370140E063E082E00E9489
:10215000F20440E064E082E00E94F20440E065E0C6
:1021600082E00E94F20441E066E082E00E94F20414
:10217000CE010E94370140E063E082E00E94F20459
:1021800040E064E082E00E94F20441E065E082E029
:102190000E94F20441E066E082E00E94F204CE0177
:1021A0000E94370140E063E082E00E94F20440E0D8
:1021B00064E082E00E94F20441E065E082E00E9477
:1021C000F20440E066E082E00E94F204CE010E9448
:1021D000370140E063E082E00E94F20441E064E005
:1021E00082E00E94F20441E065E082E00E94F20495
:1021F00040E066E082E00E94F204CE010E943701D6
:1022000040E063E082E00E94F20441E064E082E0AA
:102210000E94F20440E065E082E00E94F20440E0A7
:1022200066E082E00E94F204CE010E94370141E0A4
:1022300063E082E00E94F20441E064E082E00E94F8
:10224000F20440E065E082E00E94F20440E066E0D3
:1022500082E00E94F204CE010E94370141E063E077
:1022600082E00E94F20440E064E082E00E94F20416
:1022700040E065E082E00E94F20440E066E082E037
:102280000E94F204CE010E9437010F5F1F4F0E150E
:102290001F0508F442CFDF91CF911F910F91FF905E
:1022A000EF90089588E18AB986E880BD87E689B90C
:1022B00010BC08955D9BFECF8CB90895CF93DF933A
:1022C000EC0103C021960E945A1188818111FACF36
:1022D000DF91CF9108950E94B0000895CF92DF92D0
:1022E000EF92FF920E94D800BC0180E090E00E9433
:1022F0002A132AE038E240EA5BE30E9410142AE045
:1023000037ED43E25CE30E949E112AE037ED43E2A1
:102310005DE30E9482126B017C0120E030E0A901A4
:102320000E947D1288231CF4C12CD12C7601C70198
:10233000B601FF90EF90DF90CF9008955058BB27E3
:10234000AA270E94B6110C94C9130E94BB1338F03F
:102350000E94C21320F039F49F3F19F426F40C9424
:1023600091130EF4E095E7FB0C948B13E92F0E9478
:10237000DA1358F3BA17620773078407950720F03A
:1023800079F4A6F50C94FC130EF4E0950B2EBA2FFD
:10239000A02D0B01B90190010C01CA01A00111246B
:1023A000FF27591B99F0593F50F4503E68F11A1617
:1023B000F040A22F232F342F4427585FF3CF4695A8
:1023C00037952795A795F0405395C9F77EF41F16CA
:1023D000BA0B620B730B840BBAF09150A1F0FF0F94
:1023E000BB1F661F771F881FC2F70EC0BA0F621F80
:1023F000731F841F48F4879577956795B795F79570
:102400009E3F08F0B0CF9395880F08F09927EE0F04
:102410009795879508950E94BB1360F080E891E03E
:1024200009F49EEF0E94C21328F040E851E071F4D5
:102430005EEF0CC00C9491130C94FC13E92FE07820
:102440000E94DA1340F3092E052AB1F32617370745
:102450004807590738F00E2E07F8E02569F0E02507
:10246000E0640AC0EF6307F8009407FADB01B901E2
:102470009D01DC01CA01AD01EF930E9499120E94F7
:10248000C9130E944E125F91552339F02BED3FE0A6
:1024900049E450FD49EC0C949F110895DF93DD272A
:1024A000B92FBF7740E85FE31616170648075B07AA
:1024B00018F4D92F0E9408149F938F937F936F93E2
:1024C0000E94D514E4E5F0E00E9494130E94C91321
:1024D0002F913F914F915F910E942314DD2351F082
:1024E0009058A2EA2AED3FE049EC5FE3D0785D27FF
:1024F0000E94B611DF910C94C9130E94671308F46F
:1025000081E008950E9496120C94C9130E94C21390
:1025100058F00E94BB1340F029F45F3F29F00C945F
:102520008B1351110C94FD130C9491130E94DA1328
:1025300068F39923B1F3552391F3951B550BBB27F2
:10254000AA2762177307840738F09F5F5F4F220F37
:10255000331F441FAA1FA9F335D00E2E3AF0E0E82E
:1025600032D091505040E695001CCAF72BD0FE2F78
:1025700029D0660F771F881FBB1F2617370748070C
:10258000AB07B0E809F0BB0B802DBF01FF279358C4
:102590005F4F3AF09E3F510578F00C948B130C94EA
:1025A000FD135F3FE4F3983ED4F3869577956795E6
:1025B000B795F7959F5FC9F7880F911D96958795F9
:1025C00097F90895E1E0660F771F881FBB1F621718
:1025D00073078407BA0720F0621B730B840BBA0BD6
:1025E000EE1F88F7E09508950E94FB126894B111E0
:1025F0000C94FD1308950E94E21388F09F5798F001
:10260000B92F9927B751B0F0E1F0660F771F881FF7
:10261000991F1AF0BA95C9F714C0B13091F00E9411
:10262000FC13B1E008950C94FC13672F782F8827D2
:10263000B85F39F0B93FCCF3869577956795B39538
:10264000D9F73EF490958095709561957F4F8F4FA7
:102650009F4F0895E89409C097FB3EF490958095AC
:10266000709561957F4F8F4F9F4F9923A9F0F92F58
:1026700096E9BB279395F695879577956795B795D6
:10268000F111F8CFFAF4BB0F11F460FF1BC06F5FBC
:102690007F4F8F4F9F4F16C0882311F096E911C0CE
:1026A000772321F09EE8872F762F05C0662371F0EF
:1026B00096E8862F70E060E02AF09A95660F771F03
:1026C000881FDAF7880F9695879597F90895990FDF
:1026D0000008550FAA0BE0E8FEEF16161706E807EC
:1026E000F907C0F012161306E407F50798F0621B0D
:1026F000730B840B950B39F40A2661F0232B242BE2
:10270000252B21F408950A2609F4A140A6958FEF00
:10271000811D811D089597F99F6780E870E060E052
:1027200008959FEF80EC0895DF93CF931F930F934D
:10273000FF92EF92DF927B018C01689406C0DA2E43
:10274000EF010E942314FE01E894A5912591359193
:1027500045915591A6F3EF010E94B611FE01970134
:10276000A801DA9469F7DF90EF90FF900F911F9125
:10277000CF91DF91089500240A94161617061806C3
:102780000906089500240A94121613061406050675
:102790000895092E0394000C11F4882352F0BB0F06
:1027A00040F4BF2B11F460FF04C06F5F7F4F8F4F69
:1027B0009F4F089557FD9058440F551F59F05F3FA4
:1027C00071F04795880F97FB991F61F09F3F79F053
:1027D00087950895121613061406551FF2CF4695D5
:1027E000F1DF08C0161617061806991FF1CF869557
:1027F0007105610508940895E894BB27662777273B
:10280000CB0197F908950E94671308F48FEF08959C
:102810009B01AC0160E070E080E89FE30C948212C1
:102820000E9423140C94C9130E94BB1338F00E9419
:10283000C21320F0952311F00C948B130C94911378
:1028400011240C94FD130E94DA1370F3959FC1F3C9
:10285000950F50E0551F629FF001729FBB27F00D4E
:10286000B11D639FAA27F00DB11DAA1F649F6627A3
:10287000B00DA11D661F829F2227B00DA11D621FF2
:10288000739FB00DA11D621F839FA00D611D221FAC
:10289000749F3327A00D611D231F849F600D211D90
:1028A000822F762F6A2F11249F5750409AF0F1F013
:1028B00088234AF0EE0FFF1FBB1F661F771F881F7C
:1028C00091505040A9F79E3F510580F00C948B1316
:1028D0000C94FD135F3FE4F3983ED4F3869577950F
:1028E0006795B795F795E7959F5FC1F7FE2B880F22
:1028F000911D9695879597F90895FA01EE0FFF1FA0
:10290000309621053105A1F16115710561F480381A
:10291000BFE39B0749F168949038810561F08038E6
:10292000BFEF9B0741F099234AF5FF3FE1053105D1
:10293000210519F1E8940894E795D901AA2329F40F
:10294000AB2FBE2FF85FD0F310C0FF5F70F4A695D9
:10295000E0F7F73950F019F0FF3A38F49F779F937A
:102960000DD00F9007FC9058089546F00C949113E9
:1029700060E070E080E89FE308954FE79F775F9302
:102980004F933F932F930E94A2152F913F914F9108
:102990005F910E9410140C94E1149F930E942315E0
:1029A0000F9007FCEE5F0C944C159B01AC010C944E
:1029B000101429F416F00C948B130C94FC130C9443
:1029C00091130E94E213A8F39638A0F707F80F922C
:1029D000E8942BE33AEA48EB5FE70E9426140F9253
:1029E0000F920F924DB75EB70F920E94EA15E1E881
:1029F000F0E00E9494134F915F91EF91FF91E59564
:102A0000EE1FFF1F49F0FE57E0684427EE0F441FFA
:102A1000FA95E1F74195550B0E9464150F9007FE5A
:102A20000C94081408959F3F31F0915020F487953D
:102A300077956795B795880F911D9695879597F926
:102A400008950C9491130E94E213D8F3E894E0E007
:102A5000BB279F57F0F02AED3FE049EC06C0EE0F90
:102A6000BB0F661F771F881F28F0B23A62077307F3
:102A7000840728F0B25A620B730B840BE3959A9586
:102A800072F7803830F49A95BB0F661F771F881F46
:102A9000D2F790480C941515EF93E0FF07C0A2EA17
:102AA0002AED3FE049EC5FEB0E94B6110E94C9138A
:102AB0000F90039401FC9058E9EAF0E00C941E1684
:102AC0000C948B130C9413150E94E213D8F39923E2
:102AD000C9F3940F511DA3F39150504094F059F055
:102AE000882332F0660F771F881F91505040C1F73E
:102AF0009E3F51052CF7880F911D9695879597F964
:102B000008955F3FACF0983E9CF0BB278695779583
:102B10006795B79508F4B1609395C1F7BB0F58F767
:102B200011F460FFE8CF6F5F7F4F8F4F9F4FE3CF70
:102B30000C94FD1316F00C9413150C9491136894D7
:102B40000C948B130E94E213A8F39923C1F3AEF304
:102B5000DF93CF931F930F93FF92C92FDD27882315
:102B60002AF02197660F771F881FDAF720E030E000
:102B700040E85FEB9FE3883920F0803E38F02196F3
:102B80008F770E949F11E7ECF0E004C00E949F1134
:102B9000E4EFF0E00E9494138B01BE01EC01FB2EE8
:102BA0006F5771097595771F880B990B0E942C132D
:102BB00028E132E741E35FE30E942314AF2D98013F
:102BC000AE01FF900F911F91CF91DF910E94B6113E
:102BD0000C94C913FA01DC01AA0FBB1F9B01AC01C5
:102BE000BF5728F4222733274427507820C0B751F5
:102BF00090F4AB2F0024469537952795011CA3959B
:102C0000D2F3002071F0220F331F441FB395DAF383
:102C10000ED00C949E1161307105A0E88A07B94668
:102C200030F49B01AC01662777278827907830968F
:102C300021F0208331834283538308959F938F93A0
:102C40007F936F93FF93EF939B01AC010E9410144D
:102C5000EF91FF910E9494132F913F914F915F91BB
:102C60000C941014DB018F939F930E948316BF91E5
:102C7000AF91A29F800D911DA39F900DB29F900DCB
:102C800011240895A1E21A2EAA1BBB1BFD010DC041
:102C9000AA1FBB1FEE1FFF1FA217B307E407F5070C
:102CA00020F0A21BB30BE40BF50B661F771F881FE8
:102CB000991F1A9469F760957095809590959B017E
:102CC000AC01BD01CF010895052E97FB1EF40094C1
:102CD0000E947B1657FD07D00E94421607FC03D0C6
:102CE0004EF40C947B1650954095309521953F4FAE
:102CF0004F4F5F4F089590958095709561957F4FE8
:102D00008F4F9F4F08950E949616A59F900DB49FD8
:102D1000900DA49F800D911D11240895B7FF0C9470
:102D200083160E948316821B930B0895A29FB00105
:102D3000B39FC001A39F700D811D1124911DB29FEF
:102D4000700D811D1124911D08952532310520F447
:102D5000223010F00C94B016FA011082CA010895C6
:102D6000BB272A3051F4992342F4BDE29095809517
:102D7000709561957F4F8F4F9F4F0C94C016BB2766
:102D8000FA01A62F6217710581059105330B30FBFF
:102D900066F0AA27660F771F881F991FAA1FA21720
:102DA00010F0A21B63953850A9F7A05DAA3308F074
:102DB000A95DA19336F7B111B1931082CA010C94A9
:102DC000E116DC01FC01672F71917723E1F732975F
:102DD00004C07C916D9370836291AE17BF07C8F3F6
:062DE0000895F894FFCFF6
:102DE60000507D4400010100503A0020523A00573D
:102DF6003A0020543A00416C743A0046696738201C
:102E060050686173653A20005570706572204C6F8A
:102E16006F70004C6F776572204C6F6F7000506951
:102E2600746368204357004E5F50697463682000DE
:102E360020646567005069746368204343570052F5
:102E46006F6C6C204357004E5F526F6C6C200052C3
:102E56006F6C6C20434357005068617365200057C0
:102E6600696E6420746F6F206C6F770041626F72B9
:102E760074696E67204669673800690D0A00416CFF
:102E86007420696E6372656173656400640D0A007F
:102E9600416C74206465637265617365640046699C
:102EA60067757265203820436F6D706C65746500B8
:102EB60050697463683A2000526F6C6C3A20005473
:102EC600656D703A2000206300416C743A20002042
:102ED6006D00446174612073656E740057696E6499
:102EE6003A2000206D2F730057696E64204F4B0007
:102EF6005374617274696E67204669675F3800575C
:102F0600616974696E672E2E2E004572726F723A71
:102F160020002020204B69746520506F7765722051
:102F260000202020202053797374656D2020200016
:00000001FF
